{
  "contractName": "SimpleStorage",
  "abi": [
    {
      "inputs": [
        {
          "internalType": "uint256",
          "name": "_data",
          "type": "uint256"
        }
      ],
      "name": "updateData",
      "outputs": [],
      "stateMutability": "nonpayable",
      "type": "function"
    },
    {
      "inputs": [],
      "name": "readData",
      "outputs": [
        {
          "internalType": "uint256",
          "name": "",
          "type": "uint256"
        }
      ],
      "stateMutability": "view",
      "type": "function",
      "constant": true
    }
  ],
  "bytecode": "0x608060405234801561001057600080fd5b5061012f806100206000396000f3fe6080604052348015600f57600080fd5b506004361060325760003560e01c806309e96008146037578063bef55ef314604f575b600080fd5b604d600480360381019060499190608f565b6069565b005b60556073565b6040516060919060c2565b60405180910390f35b8060008190555050565b60008054905090565b60008135905060898160e5565b92915050565b60006020828403121560a057600080fd5b600060ac84828501607c565b91505092915050565b60bc8160db565b82525050565b600060208201905060d5600083018460b5565b92915050565b6000819050919050565b60ec8160db565b811460f657600080fd5b5056fea2646970667358221220232e9374ea2f9bfe317998a3f161ebefb95000b1f3483e94b9396d519a96edad64736f6c63430008040033",
  "immutableReferences": {},
  "source": "pragma solidity ^0.8.4;\n\ncontract SimpleStorage {\n\tuint data;\n\n\tfunction updateData(uint _data) external {\n\t\tdata = _data;\n\t}\n\n\tfunction readData() external view returns(uint) {\n\t\treturn data;\n\t}\n}",
  "sourcePath": "/Users/AF47702/Space/Self/Projects/blockchain/goldmanscahs/interviewTest/contracts/SimpleStorage.sol",
  "compiler": {
    "name": "solc",
    "version": "0.8.4+commit.c7e474f2.Emscripten.clang"
  },
  "schemaVersion": "3.4.3",
  "updatedAt": "2021-10-10T16:43:20.750Z",
  "networkType": "ethereum",
  "devdoc": {
    "kind": "dev",
    "methods": {},
    "version": 1
  },
  "userdoc": {
    "kind": "user",
    "methods": {},
    "version": 1
  }
}